:100279003F065B4F666D7D077F6F777C395E7971CD
:1002480004100000C350010800010900010A000160
:0B0258000B00010C00010D0001140060
:05028900007F19DFFEFB
:01028E00224D
:0300030093F580F2
:0400060000000022D4
:100264005389F0438901758A66758CFCC28DD28CE2
:05027400D2AFD2A92267
:10016E00120264C2A2C2A3C2A4E5089002791200D0
:10017E0003E4F580D2A2C2A3C2A4E509120003E4EF
:10018E00F580C2A2D2A3C2A4758040120006F580EB
:10019E00D2A2D2A3C2A4E50A93F580120006E4F51A
:1001AE0080C2A2C2A3D2A4E50B93F580120006E48E
:1001BE00F580D2A2C2A3D2A4758040120006F580AB
:1001CE00C2A2D2A3D2A4E50C93F580120006E4F5E8
:1001DE0080D2A2D2A3D2A4E50D93F580120006E43C
:0501EE00F58002017123
:03000B0002000EE2
:10000E00C0E0C0F0C0D075D000C000C004C005C0B4
:10001E0006C007050FE50F7002050EAE0EFF7C033E
:10002E007DE81201F3ED4C60030200CB0508E508F4
:10003E00B40A0B75F00A842509F509750800E5095F
:10004E00B4060E75F00684250AF50A7509007508C2
:10005E0000E50AB40A1175F00A84250BF50B750A32
:10006E0000750900750800E50BB4061475F00684DA
:10007E00250CF50C750B00750A0075090075080046
:10008E00E50CB404020514E50CB40A1775F00A84E5
:10009E00250DF50D750C00750B00750A0075090020
:1000AE00750800E514B40315750D00750C00750B7D
:1000BE0000750A00750900750800751400758A66CA
:1000CE00758CFCD007D006D005D004D000D0D0D08F
:0400DE00F0D0E0324C
:030000000200E219
:0C00E200787FE4F6D8FD75811402012936
:1001F300BC000BBE0029EF8DF084FFADF022E4CCF0
:10020300F875F008EF2FFFEE33FEEC33FCEE9DECB8
:10021300984005FCEE9DFE0FD5F0E9E4CEFD22EDFE
:10022300F8F5F0EE8420D21CFEADF075F008EF2F48
:10023300FFED33FD4007985006D5F0F222C398FD39
:050243000FD5F0EA22D6
:1000EE0002016EE493A3F8E493A34003F68001F2B9
:1000FE0008DFF48029E493A3F85407240CC8C33313
:10010E00C4540F4420C8834004F456800146F6DFE1
:10011E00E4800B0102040810204080900248E47E27
:10012E00019360BCA3FF543F30E509541FFEE493D6
:10013E00A360010ECF54C025E060A840B8E493A39D
:10014E00FAE493A3F8E493A3C8C582C8CAC583CAC8
:10015E00F0A3C8C582C8CAC583CADFE9DEE780BE80
:01026300009A
:00000001FF
