:10031E00496E707574204B657973203A004F4B20EF
:05032E000045525200E1
:100003001203487BFF7A03791E7D017F011202AA46
:10001300120163751C008F1DE51D451C60F2D3E5BD
:100023001D940AE51C94005041C3E51B9404E51A92
:1000330094005028AE18AF197C007D0A1200FC8E84
:10004300188F19AE1CAF1D12010EED2519F519EC11
:100053003518F518051BE51B7002051A750C04AB62
:1000630019AA187D017F021202EBE51D640B451CE2
:100073007036E519B44E0DE518B404087BFF7A0316
:10008300792B80067BFF7A03792F7D0E7F01120285
:10009300AAE4F518F519F51AF51B750C04AB19AAA2
:1000A300187D017F021202EBE51D640C451C600301
:1000B300020013F518F519F51AF51B750C04AB19A5
:0C00C300AA187D017F021202EB0200135C
:10033300EF1FAC0670011E4C600A7D027CEFDCFEF1
:04034300DDFC80EC71
:010347002293
:06035C00C2A58F80D2A7AC
:080362007F027EEFDEFEDFFCEE
:01036A002270
:0A037700C2A612035CC2A7020362D3
:1002CD00CFCDCFCECCCE12010E7C007D0A12010E09
:0402DD00ED2430FFDD
:0A02E100D2A612035CC2A70203625A
:10030800AE07BE0104ED148006BE0209ED243F4489
:0603180080FF12037722B2
:100348007F381203777F0C1203777F061203777FBB
:040358000102037724
:0A038100AC03120308AF040202E10E
:0602AA008B088A09890A95
:1002B000120308E4FDAB08AA09A90A8D8275830020
:0C02C0001200CFFF60061202E10D80E981
:0102CC00220F
:0C0277007F0AEA24FFFDE434FFFC7E0057
:080283008E0D8F0E8C0F8D1003
:10028B007F017E00E4FBEBC39510E50F6480F874EF
:0E029B008098500AAC0DAD0E1200FC0B80E8EE
:0102A9002232
:0402EB008A0A8B0BE5
:1002EF00120308AA0CEAD39400400D120277AC0A4D
:0802FF00AD0B1202CD1A80EDD7
:0103070022D3
:1001CC00120308C3EA64809480400B7F2B1202E177
:1001DC008A168B17800E7F2D1202E1C3E49BF51754
:1001EC00E49AF516AA15EAD39400400D120277ACE6
:0901FC0016AD171202CD1A80EDB8
:0102050022D6
:040206008A208B219E
:10020A00120308AA22EAD3940040297F1012027925
:10021A00AC20AD21CFCDCFCECCCE12010EEF540FF4
:10022A00FEC3940AEE5004243080022437FF1202DF
:04023A00E11A80D174
:01023E00229D
:04023F008A258B265B
:10024300120308AA27EAD394004028EA24FFFDE416
:1002530034FFFC7F027E00120283AC25AD26CFCD96
:10026300CFCECCCE12010EEF54012430FF1202E1A7
:030273001A80D21C
:010276002265
:1001630075900FE590640F605F7F647E0012033328
:10017300E590640F605275900FAF90EF24F5601017
:1001830024FE601114601324077012752801800D7A
:10019300752802800875280380037528047590F07C
:1001A300AF90EF2450601124E0601124F06011241B
:1001B300707013852828800E7404800674088002EA
:0901C300740C2528F528AF282250
:0300000002036B8D
:0C036B00787FE4F6D8FD758128020003BD
:1000CF00BB010CE58229F582E5833AF583E02250E6
:1000DF0006E92582F8E622BBFE06E92582F8E22230
:0D00EF00E58229F582E5833AF583E493224A
:1000FC00EF8DF0A4A8F0CF8CF0A428CE8DF0A42E18
:02010C00FE22D1
:10010E00BC000BBE0029EF8DF084FFADF022E4CCD5
:10011E00F875F008EF2FFFEE33FEEC33FCEE9DEC9E
:10012E00984005FCEE9DFE0FD5F0E9E4CEFD22EDE4
:10013E00F8F5F0EE8420D21CFEADF075F008EF2F2E
:10014E00FFED33FD4007985006D5F0F222C398FD1F
:05015E000FD5F0EA22BC
:00000001FF
