:06030E0048656C6C6F00F5
:0403140002130000D0
:100123001202C77B417D017F011203047BFF7A0327
:10013300790E7D037F01120254750C037B7B7A00D9
:100143007D097F01120295750C027BBE7AFF7D0D3E
:100153007F01120176750C027BA87A007D017F0274
:100163001201B0750C087BAA7A007D047F0212018C
:03017300E980FE22
:0602EB00C2A58F80D2A71E
:0802F1007F027EEFDEFEDFFC60
:0102F90022E2
:0A02FA00C2A61202EBC2A70202F135
:10027700CFCDCFCECCCE1200427C007D0A120042F9
:04028700ED2430FF33
:0A028B00D2A61202EBC2A70202F194
:1002C7007F381202FA7F0C1202FA7F061202FA7FB7
:0402D700010202FA24
:1002DB00EDBF0103148002243F4480FF1202FA2277
:0A030400AC031202DBAF0402028B0F
:060254008B088A09890AEB
:10025A001202DBE4FDAB08AA09A90A8D82758300A4
:0C026A00120003FF600612028B0D80E9F9
:010276002265
:0C0221007F0AEA24FFFDE434FFFC7E00AD
:08022D008E0F8F108C118D1251
:100235007F017E00E4FBEBC39512E5116480F87441
:0E0245008098500AAC0FAD101200300B80E80C
:010253002288
:040295008A0A8B0B3B
:100299001202DBAA0CEAD39400400D120221AC0A27
:0802A900AD0B1202771A80ED83
:0102B100222A
:100176001202DBC3EA64809480400B7F2B12028B51
:100186008A0D8B0E800E7F2D12028BC3E49BF50E1B
:10019600E49AF50DAA0CEAD39400400D120221ACA4
:0901A6000DAD0E1202771A80ED76
:0101AF00222D
:0401B0008A0A8B0B21
:1001B4001202DBAA0CEAD3940040297F1012022316
:1001C400AC0AAD0BCFCDCFCECCCE120042EF540F44
:1001D400FEC3940AEE5004243080022437FF120236
:0401E4008B1A80D121
:0101E80022F4
:0401E9008A0A8B0BE8
:1001ED001202DBAA0CEAD394004028EA24FFFDE4B6
:1001FD0034FFFC7F027E0012022DAC0AAD0BCFCD79
:10020D00CFCECCCE120042EF54012430FF12028B20
:03021D001A80D272
:0102200022BB
:1002B200EF1FAC0670011E4C600A7D027CEFDCFE73
:0402C200DDFC80ECF3
:0102C6002215
:0300000002009764
:0C009700787FE4F6D8FD7581140200DECD
:10000300BB010CE58229F582E5833AF583E02250B2
:1000130006E92582F8E622BBFE06E92582F8E222FC
:0D002300E58229F582E5833AF583E4932216
:10003000EF8DF0A4A8F0CF8CF0A428CE8DF0A42EE4
:02004000FE229E
:10004200BC000BBE0029EF8DF084FFADF022E4CCA2
:10005200F875F008EF2FFFEE33FEEC33FCEE9DEC6B
:10006200984005FCEE9DFE0FD5F0E9E4CEFD22EDB1
:10007200F8F5F0EE8420D21CFEADF075F008EF2FFB
:10008200FFED33FD4007985006D5F0F222C398FDEC
:050092000FD5F0EA2289
:1000A300020123E493A3F8E493A34003F68001F24F
:1000B30008DFF48029E493A3F85407240CC8C3335E
:1000C300C4540F4420C8834004F456800146F6DF2D
:1000D300E4800B0102040810204080900314E47EA6
:1000E300019360BCA3FF543F30E509541FFEE49322
:1000F300A360010ECF54C025E060A840B8E493A3E9
:10010300FAE493A3F8E493A3C8C582C8CAC583CA13
:10011300F0A3C8C582C8CAC583CADFE9DEE780BECB
:0103180000E4
:00000001FF
