:100077005389F0438901758A9C758CFFC28DD28C98
:07008700D2A9D2AFC2B922D9
:0B009A00EF1FAC0670011E4C70F62238
:10005D00120077750832750864D508FDE4F508E5DA
:0A006D0008C3946450F0050880F504
:03000B0002000EE2
:10000E00C0E0C0F0C0D075D000C000C007758A9C9B
:10001E00758CFF0509E50975F0648485F009750A8C
:10002E0000E509C395085012AF0A7401A8070880AD
:10003E0002C313D8FCF4F5908003759000050AE511
:0F004E000AB408DDD007D000D0D0D0F0D0E03217
:0300000002008E6D
:0C008E00787FE4F6D8FD75810A02005D61
:00000001FF
