:1000030000000000000000000000000000000000ED
:100013002A00167A16017E54557E001F545EF75E41
:10002300541F000A3C09023C25E63926A629030091
:1000330000004C5050FF50504C000030246434F604
:100043003F64242430000000007F405A7640304053
:100053005556D7554560000000008D8AFDA8FF88DE
:100063008D0B0D00000000062858D558644402008B
:10007300000000000000000000000000000000007D
:10008300E4F509F50A120131E4F508E508250990BC
:10009300000393FD7C00AF081200EE0508E508C3DA
:1000A300940840E7050AE50AD3940F40DBE4F50A18
:0E00B3000509E509D3947040CFE4F50980CA31
:10011000EF1FAC0670011E4C600A7D027CEFDCFE16
:04012000DDFC80EC96
:0101240022B8
:0200C100AD0789
:1000C300E4FB74807E00A803088006CEA2E713CE6B
:1000D30013D8F8FFEDF582EF558224FF92B4D2B620
:0A00E300C2B60BBB08DCD2B5C2B5F3
:0100ED0022F0
:05013100C2B6C2B522B8
:1000EE00AA07AF051200C1AF027480A807088002EC
:1000FE00C313D8FCF4F5807F017E001201107580C9
:02010E00FF22CE
:03000000020125D5
:0C012500787FE4F6D8FD75810A020083A3
:00000001FF
