:100003003F065B4F666D7D077F6F777C395E797145
:0100130000EC
:03028E00010C0060
:1001DA00751000750F10750E0E750D00E4FCFDFE0E
:1001EA00AB10AA0FA90EA80D12001EE47BE87A0331
:1001FA00F9F81200A98F108E0F8D0E8C0DC3E4959D
:10020A0010F510E4950FF50F7401950EF50EE495AF
:10021A000DF50DAF10AE0FAD0EFC780812013B8F35
:10022A000A85100B53890F438910850A8D850B8B1C
:06023A00D2ABD2AFD28E60
:01024000229B
:070014007F011201DA80FEFA
:03001B000202419D
:0D024100C0E0C083C082C0D075D000C007EF
:10024E00850A8D850B8B0509E50970020508B4E852
:10025E0024E508B4031F750800750900C2A2C2A3E5
:10026E00C2A4AF0C050CEF90000393F580E50CB41F
:05027E001003750C00E7
:0B028300D007D0D0D082D083D0E03272
:0300000002014EAC
:0C014E00787FE4F6D8FD75811002019561
:10001E00E88FF0A4CC8BF0A42CFCE98EF0A42CFC81
:10002E008AF0EDA42CFCEA8EF0A4CDA8F08BF0A4FF
:10003E002DCC3825F0FDE98FF0A42CCD35F0FCEB5E
:10004E008EF0A4FEA9F0EB8FF0A4CFC5F02ECD3923
:0F005E00FEE43CFCEAA42DCE35F0FDE43CFC2290
:10006D0075F008758200EF2FFFEE33FECD33CDCC4A
:10007D0033CCC58233C5829BED9AEC99E5829840CD
:10008D000CF582EE9BFEED9AFDEC99FC0FD5F0D6AA
:10009D00E4CEFBE4CDFAE4CCF9A88222B800C1B9D4
:1000AD000059BA002DEC8BF084CFCECDFCE5F0CB12
:1000BD00F97818EF2FFFEE33FEED33FDEC33FCEB4B
:1000CD0033FB10D703994004EB99FB0FD8E5E4F906
:1000DD00FA227818EF2FFFEE33FEED33FDEC33FCF3
:1000ED00C933C910D7059BE99A4007EC9BFCE99AE7
:1000FD00F90FD8E0E4C9FAE4CCFB2275F010EF2F2C
:10010D00FFEE33FEED33FDCC33CCC833C810D7072B
:10011D009BEC9AE899400AED9BFDEC9AFCE899F866
:0E012D000FD5F0DAE4CDFBE4CCFAE4C8F922F9
:10013B00E8600FECC313FCED13FDEE13FEEF13FFA2
:03014B00D8F122C6
:10015A00020014E493A3F8E493A34003F68001F2A7
:10016A0008DFF48029E493A3F85407240CC8C333A6
:10017A00C4540F4420C8834004F456800146F6DF75
:10018A00E4800B010204081020408090028EE47E75
:10019A00019360BCA3FF543F30E509541FFEE4936A
:1001AA00A360010ECF54C025E060A840B8E493A331
:1001BA00FAE493A3F8E493A3C8C582C8CAC583CA5C
:1001CA00F0A3C8C582C8CAC583CADFE9DEE780BE14
:01029100006C
:00000001FF
