:1010D0003F065B4F666D7D077F6F777C395E797168
:1010BD00100800000000000000000000000000000B
:0210CD00000021
:0A10A800F583E493F5807F327E00AB
:0B10B200EF1FAC0670011E4C70F62210
:100F6B00C2A2C2A3C2A474D02509F582741035089D
:100F7B001210A8E4F580D2A2C2A3C2A474D0250B90
:100F8B00F5827410350A1210A8E4F580C2A2D2A320
:100F9B00C2A474D0250DF5827410350C1210A8E480
:100FAB00F580D2A2D2A3C2A474D0250FF5827410FF
:100FBB00350E1210A8E4F580C2A2C2A3D2A474D03D
:100FCB002511F582741035101210A8E4F580D2A209
:100FDB00C2A3D2A474D02513F5827410351212104B
:100FEB00A8E4F580C2A2D2A3D2A474D02515F582B1
:100FFB00741035141210A8E4F580D2A2D2A3D2A497
:10100B0074D02517F582741035161210A8E4F580EC
:01101B0022B2
:030EB000120F6BB3
:100EB300E4FBFA75900FE590640F7003020F6A7FED
:100EC300E87E031210B2E590640F7003020F6A7597
:100ED300900FAF90EF24F5601224FE601614601B90
:100EE3002407701DE4F51CF51D8016751C00751D87
:100EF30001800E751C00751D028006751C00751D92
:100F0300037590F0AF90EF2450601424E060142434
:100F1300F060142470701B851C1C851D1D801374C8
:100F230004800674088002740C251DF51DE4351C2D
:100F3300F51CC3E51C94004011D3E51D9409E51C81
:100F430094005006751800751901C3EB9464EA9474
:100F5300005014E59064F0600E7FE87E031210B237
:070F63000BBB00010A80E353
:010F6A002264
:10000300E4F521F520F51FF51EF525F524F523F577
:1000130022F529F528F527F526120EB0E519640116
:1000230045187038F51A751B07AF1BEF25E024063A
:10003300F8E6FC08E6FDEF25E02408F8A60408A688
:1000430005E51B151B7002151AE51B451A70DA85A9
:100053001C08851D09E4F518F51980BDE51D640E1E
:10006300451C7020F51AF51BE51B25E02408F8E470
:10007300F608F6051BE51B7002051A6408451A709D
:10008300E7020A3CE51D640A451C60030203C6AE91
:100093000AAF0BFC7D0A120D81E5092FFBE5083E33
:1000A300FAAE0CAF0D7D64120D81EF2BFBEE3AFA25
:1000B300AE0EAF0F7C037DE8120D81EF2BFBEE3A02
:1000C300FAAE10AF117C277D10120D81EF2BFFEEDE
:1000D3003AFEE4FCFDC004C005C006C007AE12AF83
:1000E300137BA07A867901F8120D93D003D002D046
:1000F30001D000EF2BFFEE3AFEED39FDEC38FCC0EA
:1001030004C005C006C007AE14AF15E4FCFD7B4078
:100113007A42790FF8120D93D003D002D001D000A8
:10012300EF2BFFEE3AFEED39FDEC38FCC004C005C1
:10013300C006C007AE16AF17E4FCFD7B807A967944
:1001430098F8120D93D003D002D001D000EF2BFF0B
:10015300EE3AFEED39FDEC388F218E208D1FF51E12
:10016300E4F51AF51BE51B25E02408F8E4F608F688
:10017300051BE51B7002051A6408451A70E7120E89
:10018300B0E519640145187036F51A751B07AF1BE6
:10019300EF25E02406F8E6FC08E6FDEF25E0240859
:1001A300F8A60408A605E51B151B7002151AE51B26
:1001B300451A70DA851C08851D09E4F518F519E55B
:1001C3001D640F451C70B7AE0AAF0B7C007D0A128D
:1001D3000D81E5092FFBE5083EFAAE0CAF0D7D64FA
:1001E300120D81EF2BFBEE3AFAAE0EAF0F7C037DBF
:1001F300E8120D81EF2BFBEE3AFAAE10AF117C271C
:100203007D10120D81EF2BFFEE3AFEE4FCFDC004DE
:10021300C005C006C007AE12AF137BA07A86790172
:10022300F8120D93D003D002D001D000EF2BFFEED4
:100233003AFEED39FDEC38FCC004C005C006C0072A
:10024300AE14AF15E4FCFD7B407A42790FF8120D32
:1002530093D003D002D001D000EF2BFFEE3AFEED96
:1002630039FDEC38FCC004C005C006C007AE16AFAC
:1002730017E4FCFD7B807A967998F8120D93D003EE
:10028300D002D001D000EF2BFFEE3AFEED39FDECAA
:10029300388F258E248D23F522E5212525F529E5A3
:1002A300203524F528E51F3523F527E51E3522F5EE
:1002B30026E47B0AFAF9F8AF29AE28AD27AC26125B
:1002C3000E1EAE02AF038E088F09E47B0AFAF9F81B
:1002D300AF29AE28AD27AC26120E1EE47B0AFAF92D
:1002E300F8120E1EAE02AF038E0A8F0BE47B64FA84
:1002F300F9F8AF29AE28AD27AC26120E1EE47B0A0F
:10030300FAF9F8120E1EAE02AF038E0C8F0DE47BCA
:10031300E87A03F9F8AF29AE28AD27AC26120E1EF2
:10032300E47B0AFAF9F8120E1EAE02AF038E0E8FAB
:100333000FE47B107A27F9F8AF29AE28AD27AC2656
:10034300120E1EE47B0AFAF9F8120E1EAE02AF0378
:100353008E108F117BA07A8679017800AF29AE28A1
:10036300AD27AC26120E1EE47B0AFAF9F8120E1E14
:10037300AE02AF038E128F137B407A42790F78005F
:10038300AF29AE28AD27AC26120E1EE47B0AFAF97C
:10039300F8120E1EAE02AF038E148F157B807A9671
:1003A30079987800AF29AE28AD27AC26120E1EE44B
:1003B3007B0AFAF9F8120E1EAE02AF038E168F17E0
:1003C300020A3CE51D640B451C6003020709AE0AE3
:1003D300AF0BFC7D0A120D81E5092FFBE5083EFA00
:1003E300AE0CAF0D7D64120D81EF2BFBEE3AFAAE2E
:1003F3000EAF0F7C037DE8120D81EF2BFBEE3AFA73
:10040300AE10AF117C277D10120D81EF2BFFEE3A5A
:10041300FEE4FCFDC004C005C006C007AE12AF1366
:100423007BA07A867901F8120D93D003D002D00114
:10043300D000EF2BFFEE3AFEED39FDEC38FCC004A3
:10044300C005C006C007AE14AF15E4FCFD7B407ABF
:1004530042790FF8120D93D003D002D001D000EFF0
:100463002BFFEE3AFEED39FDEC38FCC004C005C0AD
:1004730006C007AE16AF17E4FCFD7B807A96799829
:10048300F8120D93D003D002D001D000EF2BFFEE72
:100493003AFEED39FDEC388F218E208D1FF51EE4D9
:1004A300F51AF51BE51B25E02408F8E4F608F60524
:1004B3001BE51B7002051A6408451A70E7120F6BDF
:1004C300120EB3E519640145187036F51A751B074A
:1004D300AF1BEF25E02406F8E6FC08E6FDEF25E078
:1004E3002408F8A60408A605E51B151B7002151AB7
:1004F300E51B451A70DA851C08851D09E4F518F516
:1005030019E51D640F451C70B4AE0AAF0B7C007D6A
:100513000A120D81E5092FFBE5083EFAAE0CAF0D7B
:100523007D64120D81EF2BFBEE3AFAAE0EAF0F7C1A
:10053300037DE8120D81EF2BFBEE3AFAAE10AF11FB
:100543007C277D10120D81EF2BFFEE3AFEE4FCFDBC
:10055300C004C005C006C007AE12AF137BA07A86E5
:100563007901F8120D93D003D002D001D000EF2B04
:10057300FFEE3AFEED39FDEC38FCC004C005C006C1
:10058300C007AE14AF15E4FCFD7B407A42790FF847
:10059300120D93D003D002D001D000EF2BFFEE3A1F
:1005A300FEED39FDEC38FCC004C005C006C007AE43
:1005B30016AF17E4FCFD7B807A967998F8120D93B9
:1005C300D003D002D001D000EF2BFFEE3AFEED397D
:1005D300FDEC388F258E248D23F522C3E521952547
:1005E300F529E5209524F528E51F9523F527E51E34
:1005F3009522F526E47B0AFAF9F8AF29AE28AD2750
:10060300AC26120E1EAE02AF038E088F09E47B0ADE
:10061300FAF9F8AF29AE28AD27AC26120E1EE47BFB
:100623000AFAF9F8120E1EAE02AF038E0A8F0BE41C
:100633007B64FAF9F8AF29AE28AD27AC26120E1E5B
:10064300E47B0AFAF9F8120E1EAE02AF038E0C8F8A
:100653000DE47BE87A03F9F8AF29AE28AD27AC2681
:10066300120E1EE47B0AFAF9F8120E1EAE02AF0355
:100673008E0E8F0FE47B107A27F9F8AF29AE28ADE1
:1006830027AC26120E1EE47B0AFAF9F8120E1EAEF0
:1006930002AF038E108F117BA07A8679017800AFA9
:1006A30029AE28AD27AC26120E1EE47B0AFAF9F810
:1006B300120E1EAE02AF038E128F137B407A427965
:1006C3000F7800AF29AE28AD27AC26120E1EE47BAF
:1006D3000AFAF9F8120E1EAE02AF038E148F157BC1
:1006E300807A9679987800AF29AE28AD27AC261288
:1006F3000E1EE47B0AFAF9F8120E1EAE02AF038E49
:10070300168F17020A3CE51D640C451C6003020AA0
:1007130042AE0AAF0BFC7D0A120D81E5092FFBE502
:10072300083EFAAE0CAF0D7D64120D81EF2BFBEE8C
:100733003AFAAE0EAF0F7C037DE8120D81EF2BFB6F
:10074300EE3AFAAE10AF117C277D10120D81EF2B1C
:10075300FFEE3AFEE4FCFDC004C005C006C007AED0
:1007630012AF137BA07A867901F8120D93D003D0D0
:1007730002D001D000EF2BFFEE3AFEED39FDEC384D
:10078300FCC004C005C006C007AE14AF15E4FCFDF1
:100793007B407A42790FF8120D93D003D002D00137
:1007A300D000EF2BFFEE3AFEED39FDEC38FCC00430
:1007B300C005C006C007AE16AF17E4FCFD7B807A08
:1007C300967998F8120D93D003D002D001D000EFA0
:1007D3002BFFEE3AFEED39FDEC388F218E208D1F75
:1007E300F51EE4F51AF51BE51B25E02408F8E4F6ED
:1007F30008F6051BE51B7002051A6408451A70E725
:10080300120F6B120EB3E519640145187036F51A11
:10081300751B07AF1BEF25E02406F8E6FC08E6FD91
:10082300EF25E02408F8A60408A605E51B151B70B0
:1008330002151AE51B451A70DA851C08851D09E4A3
:10084300F518F519E51D640F451C70B4AE0AAF0B1E
:100853007C007D0A120D81E5092FFBE5083EFAAE07
:100863000CAF0D7D64120D81EF2BFBEE3AFAAE0E49
:10087300AF0F7C037DE8120D81EF2BFBEE3AFAAE4E
:1008830010AF117C277D10120D81EF2BFFEE3AFE86
:10089300E4FCFDC004C005C006C007AE12AF137B65
:1008A300A07A867901F8120D93D003D002D001D03B
:1008B30000EF2BFFEE3AFEED39FDEC38FCC004C02F
:1008C30005C006C007AE14AF15E4FCFD7B407A42B9
:1008D300790FF8120D93D003D002D001D000EF2B83
:1008E300FFEE3AFEED39FDEC38FCC004C005C0064E
:1008F300C007AE16AF17E4FCFD7B807A967998F8B3
:10090300120D93D003D002D001D000EF2BFFEE3AAB
:10091300FEED39FDEC388F258E248D23F522FCABBB
:1009230021AA20A91FA81E120D938F298E288D2777
:100933008C26E47B0AFAF9F8120E1EAE02AF038E80
:10094300088F09E47B0AFAF9F8AF29AE28AD27AC82
:1009530026120E1EE47B0AFAF9F8120E1EAE02AF3F
:10096300038E0A8F0BE47B64FAF9F8AF29AE28AD46
:1009730027AC26120E1EE47B0AFAF9F8120E1EAEFD
:1009830002AF038E0C8F0DE47BE87A03F9F8AF29ED
:10099300AE28AD27AC26120E1EE47B0AFAF9F81234
:1009A3000E1EAE02AF038E0E8F0FE47B107A27F973
:1009B300F8AF29AE28AD27AC26120E1EE47B0AFA47
:1009C300F9F8120E1EAE02AF038E108F117BA07AC0
:1009D3008679017800AF29AE28AD27AC26120E1E0A
:1009E300E47B0AFAF9F8120E1EAE02AF038E128FE1
:1009F300137B407A42790F7800AF29AE28AD27AC3C
:100A030026120E1EE47B0AFAF9F8120E1EAE02AF8E
:100A1300038E148F157B807A9679987800AF29AE70
:100A230028AD27AC26120E1EE47B0AFAF9F8120E43
:100A33001EAE02AF038E168F17120F6B02001CE55A
:100A43001D640D451C600302001CAE0AAF0BFC7D48
:100A53000A120D81E5092FFBE5083EFAAE0CAF0D36
:100A63007D64120D81EF2BFBEE3AFAAE0EAF0F7CD5
:100A7300037DE8120D81EF2BFBEE3AFAAE10AF11B6
:100A83007C277D10120D81EF2BFFEE3AFEE4FCFD77
:100A9300C004C005C006C007AE12AF137BA07A86A0
:100AA3007901F8120D93D003D002D001D000EF2BBF
:100AB300FFEE3AFEED39FDEC38FCC004C005C0067C
:100AC300C007AE14AF15E4FCFD7B407A42790FF802
:100AD300120D93D003D002D001D000EF2BFFEE3ADA
:100AE300FEED39FDEC38FCC004C005C006C007AEFE
:100AF30016AF17E4FCFD7B807A967998F8120D9374
:100B0300D003D002D001D000EF2BFFEE3AFEED3937
:100B1300FDEC388F218E208D1FF51EE4F51AF51B91
:100B2300E51B25E02408F8E4F608F6051BE51B7031
:100B330002051A6408451A70E7120F6B120EB3E52B
:100B430019640145187036F51A751B07AF1BEF259D
:100B5300E02406F8E6FC08E6FDEF25E02408F8A605
:100B63000408A605E51B151B7002151AE51B451A9B
:100B730070DA851C08851D09E4F518F519E51D646F
:100B83000F451C70B4AE0AAF0B7C007D0A120D81B9
:100B9300E5092FFBE5083EFAAE0CAF0D7D64120D9F
:100BA30081EF2BFBEE3AFAAE0EAF0F7C037DE8121A
:100BB3000D81EF2BFBEE3AFAAE10AF117C277D10BF
:100BC300120D81EF2BFFEE3AFEE4FCFDC004C005DD
:100BD300C006C007AE12AF137BA07A867901F81264
:100BE3000D93D003D002D001D000EF2BFFEE3AFEDD
:100BF300ED39FDEC38FCC004C005C006C007AE14D7
:100C0300AF15E4FCFD7B407A42790FF8120D93D0C7
:100C130003D002D001D000EF2BFFEE3AFEED39FDF9
:100C2300EC38FCC004C005C006C007AE16AF17E41D
:100C3300FCFD7B807A967998F8120D93D003D0024D
:100C4300D001D000EF2BFFEE3AFEED39FDEC388FEB
:100C5300258E248D23F522AB25AA24A923F8AF21C1
:100C6300AE20AD1FAC1E120E1E8F298E288D278C31
:100C730026E47B0AFAF9F8120E1EAE02AF038E08C1
:100C83008F09E47B0AFAF9F8AF29AE28AD27AC2621
:100C9300120E1EE47B0AFAF9F8120E1EAE02AF031F
:100CA3008E0A8F0BE47B64FAF9F8AF29AE28AD27DF
:100CB300AC26120E1EE47B0AFAF9F8120E1EAE02DF
:100CC300AF038E0C8F0DE47BE87A03F9F8AF29AEFE
:100CD30028AD27AC26120E1EE47B0AFAF9F8120E91
:100CE3001EAE02AF038E0E8F0FE47B107A27F9F846
:100CF300AF29AE28AD27AC26120E1EE47B0AFAF903
:100D0300F8120E1EAE02AF038E108F117BA07A86EF
:100D130079017800AF29AE28AD27AC26120E1EE468
:100D23007B0AFAF9F8120E1EAE02AF038E128F136E
:100D33007B407A42790F7800AF29AE28AD27AC26E5
:100D4300120E1EE47B0AFAF9F8120E1EAE02AF036E
:100D53008E148F157B807A9679987800AF29AE2808
:100D6300AD27AC26120E1EE47B0AFAF9F8120E1E0A
:0E0D7300AE02AF038E168F17120F6B02001C1C
:0300000002101CCF
:0C101C00787FE4F6D8FD7581290210638E
:100D8100EF8DF0A4A8F0CF8CF0A428CE8DF0A42E86
:020D9100FE2240
:100D9300E88FF0A4CC8BF0A42CFCE98EF0A42CFCFF
:100DA3008AF0EDA42CFCEA8EF0A4CDA8F08BF0A47D
:100DB3002DCC3825F0FDE98FF0A42CCD35F0FCEBDC
:100DC3008EF0A4FEA9F0EB8FF0A4CFC5F02ECD39A1
:0F0DD300FEE43CFCEAA42DCE35F0FDE43CFC220E
:100DE20075F008758200EF2FFFEE33FECD33CDCCC8
:100DF20033CCC58233C5829BED9AEC99E58298404B
:100E02000CF582EE9BFEED9AFDEC99FC0FD5F0D627
:100E1200E4CEFBE4CDFAE4CCF9A88222B800C1B951
:100E22000059BA002DEC8BF084CFCECDFCE5F0CB8F
:100E3200F97818EF2FFFEE33FEED33FDEC33FCEBC8
:100E420033FB10D703994004EB99FB0FD8E5E4F983
:100E5200FA227818EF2FFFEE33FEED33FDEC33FC70
:100E6200C933C910D7059BE99A4007EC9BFCE99A64
:100E7200F90FD8E0E4C9FAE4CCFB2275F010EF2FA9
:100E8200FFEE33FEED33FDCC33CCC833C810D707A9
:100E92009BEC9AE899400AED9BFDEC9AFCE899F8E4
:0E0EA2000FD5F0DAE4CDFBE4CCFAE4C8F92277
:10102800020003E493A3F8E493A34003F68001F2DB
:1010380008DFF48029E493A3F85407240CC8C333C9
:10104800C4540F4420C8834004F456800146F6DF98
:10105800E4800B01020408102040809010BDE47E5B
:10106800019360BCA3FF543F30E509541FFEE4938D
:10107800A360010ECF54C025E060A840B8E493A354
:10108800FAE493A3F8E493A3C8C582C8CAC583CA7F
:10109800F0A3C8C582C8CAC583CADFE9DEE780BE37
:0110CF000020
:00000001FF
