:1001F60012045E1203F1120425EF606412046D7599
:1002060020008F21E521641645207004F523F5248E
:10021600E521640C45207005F523752401E521646C
:100226001845207005F523752402E521645E4520F6
:100236007005F523752403E52445237002F522E5B0
:100246002464014523700375221EE52464024523B8
:100256007003752246E52464034523700375226402
:0B026600AD24AC237F07120271808BD7
:03001B0002033F9E
:10033F00C0E0C0F0C0D075D000C000C004C005C080
:03034F0006C007DE
:10035200758DFF758BA4051FE51F7002051EAE1E6D
:10036200FF7C007D6412039C8C1E8D1FC3E51F95CC
:1003720022E51E9400500AD297C296C295D294806A
:0903820008C297C296C295C2940C
:10038B00D007D006D005D004D000D0D0D0F0D0E02C
:01039B00322F
:1002DE00E4F52720B1137F14FE12000630B1FD7F26
:1002EE00147E0012000675270120B0147F147E00C4
:1002FE0012000630B0FD7F147E0012000675270234
:10030E0020B2147F147E0012000630B2FD7F147EE0
:10031E000012000675270320B3147F147E0012000E
:10032E000630B3FD7F147E00120006752704AF273A
:01033E00229C
:10000600EF1FAC0670011E4C600A7D027CEFDCFE21
:04001600DDFC80ECA1
:01001A0022C3
:0C0418000A143F065B4F666D7D077F6F86
:10027100EF14B40800505490028675F003A4C583AE
:1002810025F0C5837302029E0202A20202A60202A7
:10029100AA0202AE0202B60202BE0202C6D2A480C5
:1002A1000ED2A48012D2A48016D2A4801AC2A4D2E3
:1002B100A3D2A28016C2A4D2A3C2A2800EC2A4C29B
:1002C100A3D2A28006C2A4C2A3C2A274142DF8E6CE
:0D02D100F5807F017E00120006E4F580221A
:1003F1005389F0438901758BA4758DFFC28FD28E0D
:07040100D2ABD2AFC2BB2257
:0B043F00D288C289D2A8D2AFD2B82266
:06045E0012040802043F35
:0D042500E50F6006E4F50F7F01227F002245
:0D043200E50D6006E4F50D7F01227F00223C
:03046A00AF0C22B2
:03046D00AF0B22B0
:0300030002001EDA
:10001E00C0E0C0F0C083C082C0D075D000C000C0A8
:10002E0001C002C003C004C005C006C007E50870C9
:10003E000CFFFE12044A7F011204648049E5086435
:10004E000170491204558E098F0AE4FFFE12044A0C
:10005E00D3E50A94A6E509942E4010E50A948EE5A0
:10006E00099432500675080202014FD3E50A948CAA
:10007E00E50994264010E50A9474E509942A500681
:10008E00750D0102014775080102014FE508640272
:10009E00600302014F1204558E098F0AE4FFFE120F
:1000AE00044AD3E50A9414E5099402402CE50A9417
:1000BE00FCE50994055022E50E131313541F24106A
:1000CE00F8C000E6FFE50E5407FE7401A80608808E
:1000DE0002C333D8FCF45F8034D3E50A9426E509D5
:1000EE0094064030E50A940EE509940A5026E50E72
:1000FE00131313541F2410F8C000E6FFE50E540727
:10010E00FE7401A806088002C333D8FC4FD000F657
:10011E00050E8006750E00750801E50EC39420408D
:10012E0020750E00E511F4B5100FE513F4B51209A4
:10013E0085100C85120B750F01E4FF12046475080F
:10014E0000D007D006D005D004D003D002D001D005
:0C015E0000D0D0D082D083D0F0D0E032AE
:100408005389F0438901E4F58AF58CC28DC28C22A8
:0B044A00AD07AC068C8CAF058F8A223A
:09045500AF8CEFFEAD8AEDFF2231
:06046400EF24FF928C2240
:0300000002016A90
:0C016A00787FE4F6D8FD7581270201B112
:10039C00BC000BBE0029EF8DF084FFADF022E4CC45
:1003AC00F875F008EF2FFFEE33FEEC33FCEE9DEC0E
:1003BC00984005FCEE9DFE0FD5F0E9E4CEFD22ED54
:1003CC00F8F5F0EE8420D21CFEADF075F008EF2F9E
:1003DC00FFED33FD4007985006D5F0F222C398FD8F
:0503EC000FD5F0EA222C
:100176000201F6E493A3F8E493A34003F68001F2A8
:1001860008DFF48029E493A3F85407240CC8C3338A
:10019600C4540F4420C8834004F456800146F6DF59
:1001A600E4800B0102040810204080900418E47ECD
:1001B600019360BCA3FF543F30E509541FFEE4934E
:1001C600A360010ECF54C025E060A840B8E493A315
:1001D600FAE493A3F8E493A3C8C582C8CAC583CA40
:1001E600F0A3C8C582C8CAC583CADFE9DEE780BEF8
:0104240000D7
:00000001FF
