:10013E00750F00750E10750D0E750C00E4FCFDFEAE
:10014E00AB0FAA0EA90DA80C12000EE47BE87A03E1
:10015E00F9F81200998F0F8E0E8D0D8C0CC3E4954D
:10016E000FF50FE4950EF50E7401950DF50DE49552
:10017E000CF50CAF0FAE0EAD0DFC780812012B8FE7
:10018E000A850F0B5389F0438901850A8C850B8AEA
:06019E00D2A9D2AFD28C01
:0101A4002238
:070003007F0112013E80FEA7
:03000B000201A54A
:0201A500C0E0B8
:1001A700850A8C850B8A0509E509700205086464D0
:0A01B70045087006F508F509B2A02E
:0301C100D0E03259
:030000000201C436
:0C01C400787FE4F6D8FD75810F0200037F
:10000E00E88FF0A4CC8BF0A42CFCE98EF0A42CFC91
:10001E008AF0EDA42CFCEA8EF0A4CDA8F08BF0A40F
:10002E002DCC3825F0FDE98FF0A42CCD35F0FCEB6E
:10003E008EF0A4FEA9F0EB8FF0A4CFC5F02ECD3933
:0F004E00FEE43CFCEAA42DCE35F0FDE43CFC22A0
:10005D0075F008758200EF2FFFEE33FECD33CDCC5A
:10006D0033CCC58233C5829BED9AEC99E5829840DD
:10007D000CF582EE9BFEED9AFDEC99FC0FD5F0D6BA
:10008D00E4CEFBE4CDFAE4CCF9A88222B800C1B9E4
:10009D000059BA002DEC8BF084CFCECDFCE5F0CB22
:1000AD00F97818EF2FFFEE33FEED33FDEC33FCEB5B
:1000BD0033FB10D703994004EB99FB0FD8E5E4F916
:1000CD00FA227818EF2FFFEE33FEED33FDEC33FC03
:1000DD00C933C910D7059BE99A4007EC9BFCE99AF7
:1000ED00F90FD8E0E4C9FAE4CCFB2275F010EF2F3C
:1000FD00FFEE33FEED33FDCC33CCC833C810D7073C
:10010D009BEC9AE899400AED9BFDEC9AFCE899F876
:0E011D000FD5F0DAE4CDFBE4CCFAE4C8F92209
:10012B00E8600FECC313FCED13FDEE13FEEF13FFB2
:03013B00D8F122D6
:00000001FF
