:0901E600007F027EC7DEFEDFFC93
:0101EF0022ED
:0D01CC00007F087E017DF3DDFEDEFCDFFA22
:0101D9002203
:10013300750D00750C10750B0E750A00E4FCFDFEC1
:10014300AB0DAA0CA90BA80A120003E47BE87A03FF
:10015300F9F812008E8F0D8E0C8D0B8C0AC3E4956B
:100163000DF50DE4950CF50C7401950BF50BE49569
:100173000AF50AAF0DAE0CAD0BFC78081201208F07
:100183000E850D0F5389F0438901850E8C850F8AE7
:02019300D28C0C
:010195002247
:10019600E4F508F5097F01120133308DFD0509E507
:1001A6000970020508C28D850E8C850F8AB2A0C320
:1001B600E5099464E508940040E0E4F508F509B221
:0601C600951201CC80D46B
:030000000201DA20
:0C01DA00787FE4F6D8FD75810F020196D5
:10000300E88FF0A4CC8BF0A42CFCE98EF0A42CFC9C
:100013008AF0EDA42CFCEA8EF0A4CDA8F08BF0A41A
:100023002DCC3825F0FDE98FF0A42CCD35F0FCEB79
:100033008EF0A4FEA9F0EB8FF0A4CFC5F02ECD393E
:0F004300FEE43CFCEAA42DCE35F0FDE43CFC22AB
:1000520075F008758200EF2FFFEE33FECD33CDCC65
:1000620033CCC58233C5829BED9AEC99E5829840E8
:100072000CF582EE9BFEED9AFDEC99FC0FD5F0D6C5
:10008200E4CEFBE4CDFAE4CCF9A88222B800C1B9EF
:100092000059BA002DEC8BF084CFCECDFCE5F0CB2D
:1000A200F97818EF2FFFEE33FEED33FDEC33FCEB66
:1000B20033FB10D703994004EB99FB0FD8E5E4F921
:1000C200FA227818EF2FFFEE33FEED33FDEC33FC0E
:1000D200C933C910D7059BE99A4007EC9BFCE99A02
:1000E200F90FD8E0E4C9FAE4CCFB2275F010EF2F47
:1000F200FFEE33FEED33FDCC33CCC833C810D70747
:100102009BEC9AE899400AED9BFDEC9AFCE899F881
:0E0112000FD5F0DAE4CDFBE4CCFAE4C8F92214
:10012000E8600FECC313FCED13FDEE13FEEF13FFBD
:03013000D8F122E1
:00000001FF
