:100072003F065B4F666D7D077F6F777C395E7971D6
:0B008E00EF1FAC0670011E4C70F62244
:10000300EFB40800504A900010F828287302002823
:1000130002002C02003302003702003E02004202BB
:10002300004902004DC2A28002D2A2C2A3C2A422EE
:10003300C2A28002D2A2D2A3C2A422C2A28002D2AE
:10004300A2C2A3D2A422C2A28002D2A2D2A3D2A4C9
:01005300228A
:10005400E4FDAF05120003ED90007293F5807F601C
:0E0064007EEA12008EE4F5800DBD08E680E213
:0300000002008279
:0C008200787FE4F6D8FD75810702005479
:00000001FF
