:10000E007475D3D475D3DDD375D3D475D3DDD3D472
:10001E00D5D4D5D4DFD5D4DFE1DF7475D3D475D381
:10002E00DDD375D3D475D3DDD3D4D5D4D5D4DFD524
:10003E00D4DFE1DFE1E9D7E9D7D5D7D8D5E1E1E9DA
:10004E00D7E9D7D5D7D8D5E1D7D7D5DEDED3DFE8F8
:10005E00DEDD928CD7D7D5DEDED3E9DEDEDD928C07
:10006E008C74738873747374737E74737473747313
:10007E008F8C7473887374737473897575747574D7
:10008E008F8C7173718471847184717371737184C7
:10009E007184718E786F707B7EDDDFE8D5D4E7A634
:1000AE00787475D3D475D3DDD375D3D475D3DDD32E
:1000BE00D4D5D4D5D4DFD5D4DFE1DF7475D3D475E0
:1000CE00D3DDD375D3D475D3DDD3D4D5D4D5D4DF86
:1000DE00D5D4DFE1DFE1E9D7E9D7D5D7D8D5E1E14E
:1000EE00E9D7E9D7D5D7D8D5E1D7D7D5DEDED3DF57
:1000FE00E8DEDD928CD7D7D5DEDED3E9DEDEDD920B
:10010E008C8C1A797B937F757FBA781A797B937F63
:10011E00757FBA787475D3D475D3DDD375D3D47592
:10012E00D3DDD3D4D5D4D5D4DFD5D4DFE1DF747508
:10013E00D3D475D3DDD375D3D475D3DDD3D4D5D481
:10014E00D5D4DFD5D4DFE1DFE1E9D7E9D7D5D7D8EC
:10015E00D5E1E1E9D7E9D7D5D7D8D5E1D7D7D5DEDF
:10016E00DED3DFE8DEDD928CD7D7D5DEDED3E9DE57
:10017E00DEDD928C8C00F2F3F5F5F6F7F8F9F9FA6C
:10018E00FAFBFBFCFCFCFDFDFDFDFEFEFEFEFEFE95
:10019E00FEFF42C117B6D0D1B621E18CD868E95B1B
:1001AE008FEE446BB4F42D4777A2B6DAFA160DBD76
:1001BE000C3E0AE80A49092F082E074906DE061EDC
:1001CE00057305270497041603A40370031102BBDD
:1001DE000294024B020B01D201B80188015D014964
:0601EE000125010500E9F6
:03000300011201E6
:03000B000203618C
:09036100B2B685138C85148A32B2
:0202FF008F0D61
:10030100E50DD394004039E4F511F510F50FF50E24
:10031100E47F887E13FDFCAB11AA10A90FA80EC3C0
:100321001203445017E5112401F511E43510F510BD
:10033100E4350FF50FE4350EF50E80D4150D80C0B0
:02034100C28C6C
:010343002297
:10028000E4F508F50CF50BF50AF509E512606F7455
:100290000E250CF5827400350BF583E493FF75F0A1
:1002A0000A84AEF0EE7004C28C801EEF75F0648498
:1002B00075F007A42E2406F50890018493F513E544
:1002C000089001A093F514D28C740E250CF582745D
:1002D00000350BF583E49375F00A8475F00A848584
:1002E000F012E50C2401F50CE4350BF50BE4350AAE
:0E02F000F50AE43509F509AF121202FF808D00
:0102FE0022DD
:0C035500758901D2AFD2A912028080FB92
:030000000201F406
:0C01F400787FE4F6D8FD75811402023B10
:10034400EB9FF5F0EA9E42F0E99D42F0E89C45F00F
:010354002286
:10020000020355E493A3F8E493A34003F68001F2BC
:1002100008DFF48029E493A3F85407240CC8C333FF
:10022000C4540F4420C8834004F456800146F6DFCE
:10023000E4800B0102040810204080900003E47E5B
:10024000019360BCA3FF543F30E509541FFEE493C3
:10025000A360010ECF54C025E060A840B8E493A38A
:10026000FAE493A3F8E493A3C8C582C8CAC583CAB5
:10027000F0A3C8C582C8CAC583CADFE9DEE780BE6D
:0100060000F9
:00000001FF
