:1003B0005772697465204F4B002020202020202098
:0B03C000200052656164204F4B2000BC
:100003001203F6750C05AB23AA227D017F011203AF
:10001300931201768F24E524B401150523E523709B
:10002300020522750C05FBAA227D017F01120393B1
:10003300E524B40216E523152370021522750C0579
:10004300AB23AA227D017F01120393E5246403708D
:1000530040FCAD23FF1203107F057E001203E1E590
:1000630022FD7C007F011203107F057E001203E155
:100073007BFF7A0379B07D017F021203347FE87E30
:10008300031203E17BFF7A0379B97D017F02120337
:1000930034E52464046003020014FF1202B57522E0
:1000A300008F237F011202B5EFFEEE4222750C058D
:1000B300AB23AA227D017F011203937BFF7A03798D
:1000C300C27D017F021203347FE87E031203E17BCA
:0F00D300FF7A0379B97D017F0212033402001412
:1003E100EF1FAC0670011E4C600A7D027CEFDCFE43
:0403F100DDFC80ECC3
:0103F50022E5
:06040A00C2A58F80D2A7FD
:080410007F027EEFDEFEDFFC3F
:0104180022C1
:0A043100C2A612040AC2A7020410BA
:10035700CFCDCFCECCCE1201217C007D0A12012158
:04036700ED2430FF52
:0A036B00D2A612040AC2A702041071
:1003CB00AE07BE0104ED148006BE0209ED243F44C6
:0603DB0080FF1204312234
:1003F6007F381204317F0C1204317F061204317FDC
:0404060001020431BA
:0A043B00AC031203CBAF0402036B05
:060334008B088A09890A0A
:10033A001203CBE4FDAB08AA09A90A8D82758300D2
:0C034A001200E2FF600612036B0D80E958
:010356002284
:0C0282007F0AEA24FFFDE434FFFC7E004C
:08028E008E0D8F0E8C0F8D10F8
:100296007F017E00E4FBEBC39510E50F6480F874E4
:0E02A6008098500AAC0DAD0E12010F0B80E8CF
:0102B4002227
:040393008A0A8B0B3C
:100397001203CBAA0CEAD39400400D120282AC0AD6
:0803A700AD0B1203571A80EDA3
:0103AF00222B
:1001D7001203CBC3EA64809480400B7F2B12036B1E
:1001E7008A168B17800E7F2D12036BC3E49BF517BE
:1001F700E49AF516AA15EAD39400400D120282ACD0
:0902070016AD171203571A80ED21
:0102100022CB
:040211008A1A8B1B9F
:100215001203CBAA1CEAD3940040297F1012028452
:10022500AC1AAD1BCFCDCFCECCCE120121EF540FE2
:10023500FEC3940AEE5004243080022437FF1203D3
:040245006B1A80D1DF
:010249002292
:04024A008A1F8B205C
:10024E001203CBAA21EAD394004028EA24FFFDE44E
:10025E0034FFFC7F027E0012028EAC1FAD20CFCD8C
:10026E00CFCECCCE120121EF54012430FF12036BFE
:03027E001A80D211
:01028100225A
:10017600E4F50820B1137F14FE1203E130B1FD7FD0
:10018600147E001203E175080120B0147F147E006E
:100196001203E130B0FD7F147E001203E175080200
:1001A60020B2147F147E001203E130B2FD7F147E6C
:1001B600001203E175080320B3147F147E001203B6
:1001C600E130B3FD7F147E001203E1750804AF0829
:0101D6002206
:100310008F088C098D0A12044F7FA01202E5120487
:1003200019AF081202E5120419AF0A1202E512040D
:040330001902045852
:0202B5008F08B0
:1002B70012044F7FA01202E5120419AF081202E5DB
:1002C70012041912044F7FA11202E5120419120336
:0D02D700758F097F01120445120458AF090C
:0102E40022F7
:09044F00D2A0D2A1C2A0C2A122D8
:07045800C2A0D2A1D2A02234
:0202E500AD0763
:1002E700E4FBC2A174807E00A803088006CEA2E7C3
:1002F70013CE13D8F8FFEDF582EF558224FF92A0B5
:08030700D2A1C2A10BBB08DA70
:01030F0022CB
:10037500E4FFFEC2A130A00D7480A806088002C368
:0D03850013D8FC4207D2A1C2A10EBE08E6AB
:010392002248
:0A044500EF24FF92A0D2A1C2A12271
:0B041900A2A0E433FFD2A1C2A1D2A038
:0104240022B5
:03000000020425D2
:0C042500787FE4F6D8FD75812402000306
:1000E200BB010CE58229F582E5833AF583E02250D3
:1000F20006E92582F8E622BBFE06E92582F8E2221D
:0D010200E58229F582E5833AF583E4932236
:10010F00EF8DF0A4A8F0CF8CF0A428CE8DF0A42E04
:02011F00FE22BE
:10012100BC000BBE0029EF8DF084FFADF022E4CCC2
:10013100F875F008EF2FFFEE33FEEC33FCEE9DEC8B
:10014100984005FCEE9DFE0FD5F0E9E4CEFD22EDD1
:10015100F8F5F0EE8420D21CFEADF075F008EF2F1B
:10016100FFED33FD4007985006D5F0F222C398FD0C
:050171000FD5F0EA22A9
:00000001FF
