:10060E000234000002360001021E0000021C001E11
:10061E001420000000000000000000000000000098
:10062E000000000000001408FF00000000000000A1
:0C063E00000000000000000000000000B0
:0806B0007F0A7E007D007C0042
:1006B8008F438E428D418C40784074FF120294EC37
:0606C8004D4E4F70F322BD
:1006E100758901758C3C758AB0D2AFD2A9D28C22A2
:02064B00A907FD
:10064D00E4FBFAAF0374807E00A807088006CEA2F3
:10065D00E713CE13D8F8FFE9FDEF5D24FF92B4D276
:10066D00B6C2B60BBB00010AEB64084A70D5D2B511
:02067D00C2B504
:01067F002258
:0E06F100AC0512064B8C801206B07580FF22FD
:04039300AB07AA0604
:1003970020B36D1206B020B367E5376403453660B6
:1003A7005FE537640245366057E4F534F535F536D1
:1003B7007537027F887E13FDFC1206B8EB24FFFF1A
:1003C700EA34FFFED3EF9400EE9400401F741F2F12
:1003D700F8E6FD74202FF8A60574072FF8E6FD74DC
:1003E700082FF8A605EF1F70DB1E80D8E508B4FEBE
:1003F700057580FF80FEE508C313F5082480F5081E
:0904070030B3FD1206B030B3FD64
:0104100022C9
:04048D00AB07AA0609
:1004910020B0691206B020B063E5376404453660C8
:1004A1005BE537640145366053E4F534F535F536DF
:1004B1007537017F887E13FDFC1206B8EB24FFFF20
:1004C100EA34FFFED3EF9400EE9400401F741F2F17
:1004D100F8E6FD74202FF8A60574072FF8E6FD74E1
:1004E100082FF8A605EF1F70DB1E80D8E520B401A8
:1004F100057580FF80FEE520C313F52030B0FD12A5
:0505010006B030B0FD62
:0105060022D2
:04041100AB07AA0685
:1004150020B26B1206B020B265E53764024536603E
:100425005DE537640345366055E4F534F535F53655
:100435007537037F887E13FDFC1206B8EB24FFFF9A
:10044500EA34FFFED3EF9400EE9400401F741F2F93
:10045500F8E6FD74202FF8A60574072FF8E6FD745D
:10046500082FF8A605EF1F70DB1E80D8E508B47FBE
:10047500057580FF80FEE50825E0F508050830B222
:07048500FD1206B030B2FDCC
:01048C00224D
:04050700AB07AA068E
:10050B0020B1691206B020B163E53764014536604E
:10051B005BE537640445366053E4F534F535F53661
:10052B007537047F887E13FDFC1206B8EB24FFFFA2
:10053B00EA34FFFED3EF9400EE9400401F741F2F9C
:10054B00F8E6FD74202FF8A60574072FF8E6FD7466
:10055B00082FF8A605EF1F70DB1E80D8E520B480AE
:10056B00057580FF80FEE52025E0F52030B1FD12FA
:05057B0006B030B1FDE7
:010580002258
:10000E00EE600302017EEF24FE60671470030200AF
:10001E00D814700302012E2403600302017EC3E58F
:10002E0035951DE534951C500302017EE4F534F53B
:10003E0035ED24FFFBEC34FFFAD3EB9400EA940089
:10004E00401F741F2BF8E6FF74202BF8A6077407C9
:10005E002BF8E6FF74082BF8A607EB1B70DB1A8053
:10006E00D8E520B401057580FF80FEE520C313F5A9
:10007E002022C3E535951DE534951C500302017E03
:10008E00E4F534F535ED24FFFBEC34FFFAD3EB94B5
:10009E0000EA9400401F741F2BF8E6FF74202BF823
:1000AE00A60774072BF8E6FF74082BF8A607EB1BC0
:1000BE0070DB1A80D8E508B4FE057580FF80FEE57A
:1000CE0008C313F5082480F50822C3E535951DE510
:1000DE0034951C500302017EE4F534F535ED24FF12
:1000EE00FBEC34FFFAD3EB9400EA9400401F741F2C
:1000FE002BF8E6FF74202BF8A60774072BF8E6FF03
:10010E0074082BF8A607EB1B70DB1A80D8E508B431
:10011E007F057580FF80FEE50825E0F508050822BD
:10012E00C3E535951DE534951C4045E4F534F535AC
:10013E00ED24FFFBEC34FFFAD3EB9400EA9400407D
:10014E001F741F2BF8E6FF74202BF8A60774072BDD
:10015E00F8E6FF74082BF8A607EB1B70DB1A80D8A5
:10016E00E520B480057580FF80FEE52025E0F520B2
:01017E00225E
:1005CE00E51F451E70391205817C007D0812025C04
:1005DE00AF057480A807088002C313D8FCF5381243
:1005EE0005817C007D0812025CAF057480A80708A7
:1005FE008002C313D8FCF4F539751E00751F012255
:100680007D017C00EF24FFFBEE34FFFAC3ED9BEC11
:100690009A501C74202DF8E6B5200D74082DF8E64C
:0F06A000B508057580FF80FE0DBD00010C80D5EB
:0106AF002228
:10017F00753A00753B02C2B6C2B5C2A51206E1754B
:10018F00204075087F75218075097FAF3B741F2F45
:10019F00F8E6F53E74072FF8E6F53F1205CEAD39B8
:1001AF00AF381206F1E52065387046E508653970FD
:1001BF0040AF3B741F2FF8E6FE74202FF8A606AF52
:1001CF003B74072FF8E6FE74082FF8A606053BE5EB
:1001DF003B7002053AC3E51D940FE51C9400400CDB
:1001EF0074FE251DF51D74FF351CF51CE4F51EF579
:1001FF001FAF3BAE3A120393AF3BAE3A12048DAF33
:10020F003BAE3A120411AF3BAE3A120507AD3BAC11
:10021F003AAF37AE3612000EAF3BAE3A120680E45D
:10022F00F53CF53DC3E53D953BE53C953A40030272
:10023F00019AAE3D74202EF8E6FF74082EF8E6FD05
:0D024F001206F1053DE53D70DB053C80D752
:03000B000206CE1C
:1006CE00C0E00535E53570020534758C3C758AB091
:0306DE00D0E03237
:03000000020307F1
:0C030700787FE4F6D8FD75814702034EB4
:10025C00C2D5EC30E709B2D5E4C39DFDE49CFCEEBD
:10026C0030E715B2D5E4C39FFFE49EFE1202B2C381
:10027C00E49DFDE49CFC80031202B230D507C3E47C
:06028C009FFFE49EFE222C
:100292007401FF3395E0FEFDFC080808E62FFFF627
:1002A20018E63EFEF618E63DFDF618E63CFCF622A0
:10058100AC44AD45AE46AF477810EC4D4E4F7004CC
:100591007CA57DA5C3EC13FCED13FDEE13FEEF135B
:1005A100FF5010EC64CCFCED644CFDEE644EFEEFAC
:1005B10064CEFFD8DF8C448D458E468F47EE547F45
:0D05C100FE228E448F4574A5F546F54722B5
:1003130002017FE493A3F8E493A34003F68001F280
:1003230008DFF48029E493A3F85407240CC8C333EB
:10033300C4540F4420C8834004F456800146F6DFBA
:10034300E4800B010204081020408090060EE47E36
:10035300019360BCA3FF543F30E509541FFEE493AF
:10036300A360010ECF54C025E060A840B8E493A376
:10037300FAE493A3F8E493A3C8C582C8CAC583CAA1
:10038300F0A3C8C582C8CAC583CADFE9DEE780BE59
:01064A0000AF
:1002B200BC000BBE0029EF8DF084FFADF022E4CC30
:1002C200F875F008EF2FFFEE33FEEC33FCEE9DECF9
:1002D200984005FCEE9DFE0FD5F0E9E4CEFD22ED3F
:1002E200F8F5F0EE8420D21CFEADF075F008EF2F89
:1002F200FFED33FD4007985006D5F0F222C398FD7A
:050302000FD5F0EA2216
:00000001FF
