:1000CF000B0868656C6C6F20776F7264000113000A
:1000A80012008F74082513F8E6FF60071200E805B0
:0500B8001380F080FE42
:0900BD00C2A58F801200C6D2A773
:0800C6007F0F7E98DEFEDFFAD9
:0100CE00220F
:0800E000C2A61200BDC2A72256
:0800E800D2A61200BDC2A7223E
:10008F007F061200E07F0C1200E07F381200E07F45
:09009F00011200E07F830200E081
:03000000020003F8
:0C000300787FE4F6D8FD75811302004AF6
:10000F000200A8E493A3F8E493A34003F68001F25F
:10001F0008DFF48029E493A3F85407240CC8C333F2
:10002F00C4540F4420C8834004F456800146F6DFC1
:10003F00E4800B01020408102040809000CFE47E82
:10004F00019360BCA3FF543F30E509541FFEE493B6
:10005F00A360010ECF54C025E060A840B8E493A37D
:10006F00FAE493A3F8E493A3C8C582C8CAC583CAA8
:10007F00F0A3C8C582C8CAC583CADFE9DEE780BE60
:0100DF000020
:00000001FF
