:100462001207567FE87E0312070C12072112075665
:100472001205058F228E218D208C1FE4FFFEFDFCCC
:10048200AB22AA21A920A81F1201A9501E7B2D7DF3
:10049200017F02120779AF22AE21AD20AC1F1202FA
:1004A200228F228E218D208C1F80097B2B7D017F44
:1004B20002120779AF22AE21AD20AC1F120271AB3E
:1004C20007AA06750C037D027F021206717B2E7D40
:1004D200057F021207797F007E407D1C7C46AB229D
:1004E200AA21A920A81F120003120271E47B107A2C
:1004F20027F9F81203C2750C047D067F02120671F9
:0305020002046F81
:10070C00EF1FAC0670011E4C600A7D027CEFDCFE14
:04071C00DDFC80EC94
:0107200022B6
:06074700C2A58F80D2A7BD
:08074D007F027EEFDEFEDFFCFF
:010755002281
:0A076F00C2A6120747C2A702074DF9
:10065300CFCDCFCECCCE1203317C007D0A12033135
:04066300ED2430FF53
:0A066700D2A6120747C2A702074DF2
:1006F600AE07BE0104ED148006BE0209ED243F4498
:0607060080FF12076F22C4
:100721007F3812076F7F0C12076F7F0612076F7FEA
:040731000102076F4B
:0A077900AC031206F6AF0402066797
:060630008B238A248925BA
:100636001206F6E4FDAB23AA24A9258D8275830054
:0C0646001202F2FF60061206670D80E948
:010652002285
:0C05FD007F0AEA24FFFDE434FFFC7E00CE
:080609008E0F8F108C118D1271
:100611007F017E00E4FBEBC39512E5116480F87461
:0E0621008098500AAC0FAD1012031F0B80E83A
:01062F0022A8
:040671008A0A8B0B5B
:100675001206F6AA0CEAD39400400D1205FDAC0A49
:08068500AD0B1206531A80EDC3
:01068D00224A
:100552001206F6C3EA64809480400B7F2B12066772
:100562008A188B19800E7F2D120667C3E49BF5193A
:10057200E49AF518AA17EAD39400400D1205FDACCF
:0905820018AD191206531A80EDA0
:01058B00224D
:04058C008A1C8B1D1D
:100590001206F6AA1EEAD3940040297F101205FF26
:1005A000AC1CAD1DCFCDCFCECCCE120331EF540F4E
:1005B000FEC3940AEE5004243080022437FF120652
:0405C000671A80D165
:0105C4002214
:0405C5008A0C8B0D04
:1005C9001206F6AA0EEAD394004028EA24FFFDE4B5
:1005D90034FFFC7F027E00120609AC0CAD0DCFCDB5
:1005E900CFCECCCE120331EF54012430FF1206676F
:0305F9001A80D293
:0105FC0022DC
:0D0756001206AB7FCC1206C57F440206C51B
:100505001206AB7FCC1206C57FBE1206C512068E3B
:100515008F0812068E8F09E508FB7A00750E087D97
:10052500017F011205C5E509FB7A00750E087D09F5
:100535007F011205C5E509FEE508FFFDAC06EC12D5
:0C0545000238E4FBFA7980784112010CC6
:010551002287
:1006AB00D2B7C2B77FF7DFFED2B77F20DFFEA2B78C
:0906BB00E433FE7FF7DFFEAF0619
:0106C4002213
:10073500C2B77E04DEFEEF24FF92B77E18DEFED23E
:01074500B7FC
:010746002290
:1006DE00C2B77F02DFFED2B77F02DFFEA2B7E433DE
:0706EE00FE7F18DFFEAF06DE
:0106F50022E2
:0206C500AD077F
:1006C700E4FC7401A804088002C333D8FC5DFF1260
:0606D70007350CBC08EC25
:0106DD0022FA
:10068E00E4FDFC1206DEEF600D7401A80408800282
:0C069E00C333D8FC42050CBC08E9AF05D2
:0106AA00222D
:10000300EC4D6011E8497017ED33EC3304600DE4F7
:10001300FCFFFEFD22E933E8330470F80202DD122F
:1000230002A858046009E4CC248150062850090230
:1000330002E72840030202E4C0E0EB4A7044B980BF
:1000430006D0E0FB0202D3EF4E701CBD8008EBFF2D
:10005300EAFEE9FD80EBE98DF0A4FEE5F00200EC99
:10006300E9CDF9EAFEEBFFEF89F0A4FCE5F0CE89D8
:10007300F0A42EFFE435F0CD89F0A42DFEE435F095
:100083008067EF4E7005BD80D780C3EF8BF0A4ACC3
:10009300F0EE8BF0A42CFCE435F0F8EF8AF0A42CFE
:1000A300E5F038FCE433CB8DF0A42CFCE5F03BF811
:1000B300EE8AF0A42CFCE5F038F8E433CF89F0A401
:1000C3002CFCE5F038CF3400CE89F0A42FFFE5F007
:1000D3003EFEE433C98DF0A42EFEE5F039CD8AF05F
:1000E300A42FFFE5F03EFEE43DFD33D0E0FB5007D7
:1000F3000BBB000F0202E7EC2CFCEF33FFEE33FEE9
:06010300ED33FD0202BF16
:100109000202E7EC5D046005E8590470030202DDB0
:100119001202A8580460F6EC4860F2EC7004FDFE87
:10012900FF22C860DB2481C85009C39860025006C9
:100139000202E49850CAF582E9294B4A7005AB825C
:100149000202D375F0007C1A7880C3EF9BEE9AED1A
:1001590099400DC3EF9BFFEE9AFEED99FDE842F041
:10016900DC23ACF0D0E0FFD0E0FED0E0FDAB822094
:10017900E7101BEB60BAEC2CFCEF33FFEE33FEED1E
:1001890033FD0202BFE803F830E705C0F075F0005F
:10019900EF2FFFEE33FEED33FD40B830E7C280AA02
:1001A90074F8CC6480CCC86480C8F58204604FC3FD
:1001B900EB9FF5F0EA9E42F0E99D42F0E89C45F09C
:1001C900603C501DE5825FFFE582D313CB5BCBF426
:1001D9002B5582FB50280ABA002409B9002008804F
:1001E9001DE5825BFBE582D313CF5FCFF4C3132FE9
:1001F9005582FF50090EBE00050DBD00010CC3EB71
:100209009FF5F0EA9E42F0E99D42F0E89C45F060D6
:0902190007CC4820E701B3EC22F8
:10022200ED33EC33600A047003BD8004ECB2E7FCEA
:0102320022A9
:1002330075F020800E75F010800575F0087D007E46
:10024300007F003392D530D503120454EC334010B1
:10025300EF33FFEE33FEED33FDEC33FCD5F0ED224F
:0E026300E5F0247EA2D513CC92E7CDCEFF228B
:10027100EDD2E7CD33EC3392D524814006E4FFFE85
:10028100FDFC22FCE4CFCECDCC24E0501174FF80E4
:10029100EDC3CC13CCCD13CDCE13CECF13CF047081
:0702A100F030D5DE02045429
:1002A800E9D2E7C933E833F892D5EDD2E7CD33EC9C
:0702B80033FC5002B2D52215
:1002BF00EC30E7100FBF000C0EBE00080DBD0004A0
:1002CF000BEB6014A2D5EB13FCED92E7FD2274FF4C
:1002DF00FCFDFEFF22E480F8A2D574FF13FC7D80A5
:0302EF00E480EFB9
:0300000002076391
:0C076300787FE4F6D8FD75812502046261
:1002F200BB010CE58229F582E5833AF583E02250C1
:1003020006E92582F8E622BBFE06E92582F8E2220A
:0D031200E58229F582E5833AF583E4932224
:10031F00EF8DF0A4A8F0CF8CF0A428CE8DF0A42EF2
:02032F00FE22AC
:10033100BC000BBE0029EF8DF084FFADF022E4CCB0
:10034100F875F008EF2FFFEE33FEEC33FCEE9DEC79
:10035100984005FCEE9DFE0FD5F0E9E4CEFD22EDBF
:10036100F8F5F0EE8420D21CFEADF075F008EF2F09
:10037100FFED33FD4007985006D5F0F222C398FDFA
:050381000FD5F0EA2297
:1003860075F008758200EF2FFFEE33FECD33CDCC2E
:1003960033CCC58233C5829BED9AEC99E5829840B1
:1003A6000CF582EE9BFEED9AFDEC99FC0FD5F0D68E
:1003B600E4CEFBE4CDFAE4CCF9A88222B800C1B9B8
:1003C6000059BA002DEC8BF084CFCECDFCE5F0CBF6
:1003D600F97818EF2FFFEE33FEED33FDEC33FCEB2F
:1003E60033FB10D703994004EB99FB0FD8E5E4F9EA
:1003F600FA227818EF2FFFEE33FEED33FDEC33FCD7
:10040600C933C910D7059BE99A4007EC9BFCE99ACA
:10041600F90FD8E0E4C9FAE4CCFB2275F010EF2F0F
:10042600FFEE33FEED33FDCC33CCC833C810D7070F
:100436009BEC9AE899400AED9BFDEC9AFCE899F84A
:0E0446000FD5F0DAE4CDFBE4CCFAE4C8F922DD
:0E045400C3E49FFFE49EFEE49DFDE49CFC22B9
:00000001FF
