:0702D20048454C4C4F3A0077
:1001DE0012028F7BFF7A0279D27D017F0112020615
:1001EE001200978F22E52260F7FB7A00750C027DD4
:0801FE00017F0212024780E8B4
:10027A00EF1FAC0670011E4C600A7D027CEFDCFEAB
:04028A00DDFC80EC2B
:01028E00224D
:0602A300C2868FA0D28587
:0802A9007F027EEFDEFEDFFCA8
:0102B100222A
:0A02BE00C2871202A3C2850202A942
:10022900CFCDCFCECCCE1200427C007D0A12004247
:04023900ED2430FF81
:0A023D00D2871202A3C2850202A9B3
:10026400AE07BE0104ED148006BE0209ED243F442E
:0602740080FF1202BE2211
:10028F007F381202BE7F0C1202BE7F061202BE7FA3
:04029F00010202BE98
:0A02C800AC03120264AF0402023D11
:060206008B088A09890A39
:10020C00120264E4FDAB08AA09A90A8D8275830069
:0C021C00120003FF600612023D0D80E995
:0102280022B3
:0C01AB007F0AEA24FFFDE434FFFC7E0024
:0801B7008E0D8F0E8C0F8D10D0
:1001BF007F017E00E4FBEBC39510E50F6480F874BC
:0E01CF008098500AAC0DAD0E1200300B80E887
:0101DD0022FF
:040247008A0A8B0B89
:10024B00120264AA0CEAD39400400D1201ABAC0A63
:08025B00AD0B1202291A80ED1F
:010263002278
:10010000120264C3EA64809480400B7F2B12023D8C
:100110008A168B17800E7F2D12023DC3E49BF517C4
:10012000E49AF516AA15EAD39400400D1201ABAC7F
:0901300016AD171202291A80ED28
:0101390022A3
:04013A008A1A8B1B77
:10013E00120264AA1CEAD3940040297F101201AD6A
:10014E00AC1AAD1BCFCDCFCECCCE120042EF540F9A
:10015E00FEC3940AEE5004243080022437FF1202AC
:04016E003D1A80D1E5
:01017200226A
:040173008A1F8B2034
:10017700120264AA21EAD394004028EA24FFFDE48E
:1001870034FFFC7F027E001201B7AC1FAD20CFCD3C
:10019700CFCECCCE120042EF54012430FF12023DE5
:0301A7001A80D2E9
:0101AA002232
:1000970075900FE590640F605D7F647E0012027AB1
:1000A700E590640F605075900FAF90EF24F56010E6
:1000B70024FE601114601324077012752301800D4C
:1000C700752302800875230380037523047590F058
:1000D700AF90EF2450601124E0601124F0601124E8
:1000E700707013852323800E7404800674088002C1
:0900F700740C2523F523AF23222C
:030000000202B247
:0C02B200787FE4F6D8FD7581230201DEA0
:10000300BB010CE58229F582E5833AF583E02250B2
:1000130006E92582F8E622BBFE06E92582F8E222FC
:0D002300E58229F582E5833AF583E4932216
:10003000EF8DF0A4A8F0CF8CF0A428CE8DF0A42EE4
:02004000FE229E
:10004200BC000BBE0029EF8DF084FFADF022E4CCA2
:10005200F875F008EF2FFFEE33FEEC33FCEE9DEC6B
:10006200984005FCEE9DFE0FD5F0E9E4CEFD22EDB1
:10007200F8F5F0EE8420D21CFEADF075F008EF2FFB
:10008200FFED33FD4007985006D5F0F222C398FDEC
:050092000FD5F0EA2289
:00000001FF
