:09023E00007F027EC7DEFEDFFC3A
:010247002294
:10013300750F00750E10750D0E750C00E4FCFDFEB9
:10014300AB0FAA0EA90DA80C120003E47BE87A03F7
:10015300F9F812008E8F0F8E0E8D0D8C0CC3E49563
:100163000FF50FE4950EF50E7401950DF50DE4955D
:100173000CF50CAF0FAE0EAD0DFC78081201208FFD
:1001830008850F0A5389F043890185088C850A8AFB
:02019300D28C0C
:010195002247
:10019600750F00750E10750D0E750C00E4FCFDFE56
:1001A600AB0FAA0EA90DA80C120003E47BE87A0394
:1001B600F9F812008E8F0F8E0E8D0D8C0CC3E49500
:1001C6000FF50FE4950EF50E7401950DF50DE495FA
:1001D6000CF50CAF0FAE0EAD0DFC78081201208F9A
:1001E60009850F0B53890F43891085098D850B8B64
:0201F600D28EA7
:0101F80022E4
:1001F9007F021201337F04120196308D1DC28D8555
:10020900088C850A8A7D607CEAED1DAE0470011CAC
:100219004E6007B29512023E80EF308FDDC28F85A6
:09022900098D850B8BB2A080D178
:03000000020232C7
:0C023200787FE4F6D8FD75810F0201F919
:10000300E88FF0A4CC8BF0A42CFCE98EF0A42CFC9C
:100013008AF0EDA42CFCEA8EF0A4CDA8F08BF0A41A
:100023002DCC3825F0FDE98FF0A42CCD35F0FCEB79
:100033008EF0A4FEA9F0EB8FF0A4CFC5F02ECD393E
:0F004300FEE43CFCEAA42DCE35F0FDE43CFC22AB
:1000520075F008758200EF2FFFEE33FECD33CDCC65
:1000620033CCC58233C5829BED9AEC99E5829840E8
:100072000CF582EE9BFEED9AFDEC99FC0FD5F0D6C5
:10008200E4CEFBE4CDFAE4CCF9A88222B800C1B9EF
:100092000059BA002DEC8BF084CFCECDFCE5F0CB2D
:1000A200F97818EF2FFFEE33FEED33FDEC33FCEB66
:1000B20033FB10D703994004EB99FB0FD8E5E4F921
:1000C200FA227818EF2FFFEE33FEED33FDEC33FC0E
:1000D200C933C910D7059BE99A4007EC9BFCE99A02
:1000E200F90FD8E0E4C9FAE4CCFB2275F010EF2F47
:1000F200FFEE33FEED33FDCC33CCC833C810D70747
:100102009BEC9AE899400AED9BFDEC9AFCE899F881
:0E0112000FD5F0DAE4CDFBE4CCFAE4C8F92214
:10012000E8600FECC313FCED13FDEE13FEEF13FFBD
:03013000D8F122E1
:00000001FF
