:1000B0003F065B4F666D7D077F6F777C395E797198
:0D00C000007F087E017DF3DDFEDEFCDFFA2F
:0100CD002210
:0800DA007FB47E49DEFEDFFC6D
:0100E20022FB
:0D000600D2AFD2A8D288D2AAD28AD2BA2212
:10008800120006D2A2D2A3D2A49000B5E493F580C0
:100098001200DAE4F580C2A2D2A3D2A4A393F58019
:0800A8001200DAE4F58080DBB0
:03000300020016E2
:10001600C0E0C083C082C0D075D000C005C006C095
:10002600071200DA20B213C2A2C2A3C2A49000B083
:10003600E493F5801200C0758000D007D006D00585
:09004600D0D0D082D083D0E0328A
:0300130002004F99
:10004F00C0E0C083C082C0D075D000C005C006C05C
:10005F00071200DA20B313C2A2D2A3C2A49000B237
:10006F00E493F5801200C0758000D007D006D0054C
:09007F00D0D0D082D083D0E03251
:030000000200CE2D
:0C00CE00787FE4F6D8FD758107020088F9
:00000001FF
